S01800005369676964612E5472696767657227732E737265631F
S113000012C017C016C015C014C013C012C011C04E
S113001010C00FC00EC00DC00CC00BC00AC009C078
S113002008C007C006C011241FBECFEDCDBF30D01D
S1130030B8C0E6CF8FEF809918C0819916C088BBED
S1130040EBE7F2E93197F1F700C0000018BAEBE7EB
S1130050F2E93197F1F700C0000088BBEBE7F2E961
S11300603197F1F700C00000E6CF839902C0829B6C
S1130070E6CF819902C0839BE2CF809902C0829B24
S1130080DECF829902C0819BDACF80E090E00895B0
S113009018BA8FEF87BB82BB11BAC1E0D2E013E07C
S11300A080991EC08099FCCFC5DF849B04C0859BCA
S11300B002C018BBF7CF849904C0859B02C0D8BB8B
S11300C0F1CF849B04C0859902C0C8BBEBCF84994F
S11300D005C0859903C086B388BBE4CF18BAE2CFC4
S11300E0819932C08199DCCFA5DF849B18C0859BA0
S11300F016C0C8BB83E294EF0197F1F700C000007B
S1130100D8BB83E294EF0197F1F700C00000C8BBAD
S113011083E294EF0197F1F700C00000E3CF8499E4
S113012004C0859B02C0D8BBDDCF849B04C08599E5
S113013002C0C8BBD7CF849905C0859903C086B3D4
S113014088BBD0CF18BACECF82991AC08299A8CFD3
S113015071DF849B02C0859904C0849905C0859B86
S113016003C086B388BBF2CF849B04C0859902C0C8
S1130170C8BBECCF849902C0859900C018BAE6CFF9
S113018083990DC083998CCF55DF849B02C0C8BB73
S1130190F9CF849902C0D8BBF5CF18BAF3CF18BAF7
S10901A07FCFF894FFCFAD
S9030000FC
