S01000005967616461696B612E73726563F9
S113000012C02AC029C028C027C026C025C024C0C9
S113001023C022C021C020C01FC01EC01DC01CC0E0
S11300201BC01AC019C011241FBECFEDCDBF10E0F4
S1130030A0E6B0E0E6E7F3E002C005900D92AE362C
S1130040B107D9F720E0AEE6B0E001C01D92AF36AB
S1130050B207E1F712D08DC1D3CFCF93DF93D82F5E
S1130060C62F21D16C2F70E06D1B71096F5F7F4F1C
S1130070A9D08D0FDF91CF910895CF93DF93CDB7A2
S1130080DD27CA50CDBF8FEF82BB11BA18BA87BB28
S11300908AE0E4E6F0E0DE01119601900D928A9583
S11300A0E1F710926E008699FCCF2FE936E861E003
S11300B0215030406040E1F700C0000069E081E079
S11300C0CCDF90E0E1E0F0E0EC0FFD1FE80FF91F5A
S11300D0208128BB40E050E040C020B32F7030E0C6
S11300E08217930779F581E080936E0087E788BBD8
S11300F0EFE4F3EC3197F1F700C0000018BAEFE435
S1130100F3EC3197F1F700C0000088BBEFE4F3ECA7
S11301103197F1F700C0000018BAEFE4F3EC31971F
S1130120F1F700C0000088BB8FE493EC0197F1F76E
S113013000C0000018BAEFE4F3EC3197F1F700C007
S113014000000FC0FFE52AEE30E0F15020403040BF
S1130150E1F700C000004F5F5F4F4A3051050CF4D7
S1130160BCCF80916E00813009F49BCF8EE088BBB8
S1130170EFE4F3EC3197F1F700C0000018BAEFE4B4
S1130180F3EC3197F1F700C0000088BBEFE4F3EC27
S11301903197F1F700C0000018BAEFE4F3EC31979F
S11301A0F1F700C0000088BB8FE493EC0197F1F7EE
S11301B000C0000018BAEFE4F3EC3197F1F700C087
S11301C000006FCF97FB072E16F4009406D077FD3E
S11301D008D00BD007FC05D03EF4909581959F4F35
S11301E00895709561957F4F0895AA1BBB1B51E13B
S11301F007C0AA1FBB1FA617B70710F0A61BB70B93
S1130200881F991F5A95A9F780959095BC01CD0137
S113021008958F929F92AF92BF92CF92DF92EF9206
S1130220FF92CF93DF93EC01688179818A819B816E
S1130230611571058105910521F464E279ED8BE581
S113024097E02DE133EF41E050E055D049015A01E8
S113025027EA31E440E050E035D06B017C012CEE1C
S113026034EF4FEF5FEFC501B4012CD0DC01CB01BB
S11302708C0D9D1DAE1DBF1DB7FF03C00197A109C5
S1130280B04888839983AA83BB839F77DF91CF91FA
S1130290FF90EF90DF90CF90BF90AF909F908F90A2
S11302A00895B7DF089580E690E0B3DF0895A0E0F5
S11302B0B0E08093600090936100A0936200B093DB
S11302C063000895EE27FF27AA27BB2708C0A20FC3
S11302D0B31FE41FF51F220F331F441F551F9695AC
S11302E087957795679598F37040A9F7009799F7E4
S11302F0BD01CF010895052E97FB16F400940FD08D
S113030057FD05D014D007FC02D046F408C0509520
S11303104095309521953F4F4F4F5F4F08959095ED
S11303208095709561957F4F8F4F9F4F0895A1E2FF
S11303301A2EAA1BBB1BFD010DC0AA1FBB1FEE1F5B
S1130340FF1FA217B307E407F50720F0A21BB30BA6
S1130350E40BF50B661F771F881F991F1A9469F722
S113036060957095809590959B01AC01BD01CF017E
S10903700895F894FFCF8C
S11103760100000000065B4F666D7D077F6F7F
S9030000FC
