:1000000012C02AC029C028C027C026C025C024C0CD
:1000100023C022C021C020C01FC01EC01DC01CC0E4
:100020001BC01AC019C011241FBECFEDCDBF10E0F8
:10003000A0E6B0E0EEEEF3E002C005900D92AA3C1F
:10004000B107D9F720E0AAECB0E001C01D92AC3CAA
:10005000B207E1F71ED1C9C1D3CF880F880F880F2F
:1000600092B3946092BB90E19A95F1F700C092B37D
:10007000977892BB92B3892B82BB82B38B7F82BB72
:1000800080E18A95F1F700C00895CF93C82F6111E0
:1000900004C082B38D7F82BB03C082B3826082BB07
:1000A0008C2F82958F70D9DF8C2FD7DFCF91089559
:1000B00061E0EBDF08956295660F660F607C860F46
:1000C00060E08068E2DF089585EA9EE00197F1F73D
:1000D00000C0000083E0C1DF87EE93E00197F1F7F5
:1000E00000C0000083E0B9DF91E29A95F1F70000CB
:1000F00083E0B3DF89EF90E00197F1F700C00000E3
:1001000082E0ABDF89EF90E00197F1F700C00000DB
:1001100060E088E2BADF89EF90E00197F1F700C074
:10012000000060E08CE0B1DF89EF90E00197F1F72B
:1001300000C0000060E086E0A8DF89EF90E0019752
:10014000F1F700C00000089560E081E09EDF86E7DF
:1001500091E00197F1F700C0000008950F931F93FD
:10016000CF93DF938C01C0E0D0E002C0A1DF2196E5
:10017000F801EC0FFD1F80818111F8CFDF91CF9145
:100180001F910F910895882321F0611104C080E030
:10019000089580E0089581E00895811104C06623E8
:1001A00021F081E0089581E0089580E0089588239A
:1001B00021F0611104C081E0089581E0089580E09C
:1001C0000895811103C0662319F0089580E0089511
:1001D00081E00895811102C0611105C0611105C05F
:1001E000811105C0089581E0089580E0089581E0BF
:1001F0000895811102C0611106C0882331F0611198
:1002000006C080E0089580E0089581E0089581E0CF
:100210000895CF93B3990BC0C82F8BE49DE101974C
:10022000F1F700C0000090DF8C2F90E097DFCF91B6
:100230000895B0991AC08091CA00811116C08091AA
:10024000CB008F5F8093CB0091E09093CA00873002
:1002500010F01092CB002FE986E891E02150804009
:100260009040E1F700C0000008951092CA00089580
:100270006BDF80E690E072DF0895892B21F082B376
:10028000816082BB03C082B38E7F82BB862FC1DFB9
:10029000089512BA8FEF81BB88BB17BA15DF54DF00
:1002A00060E070E080E007DF8BE690E057DFC1DFC1
:1002B0008091CB008330E9F128F4813061F0823005
:1002C00009F1F5CF853009F462C008F449C08630E1
:1002D00009F474C0ECCFCCDF10C066B386B366956A
:1002E000669591E0692761708695892781704BDF5B
:1002F0006AE770E090E0C1DF9CDF8091CB00813045
:1003000061F3D5CFB5DF10C066B386B36695669549
:1003100091E0692761708695892781703EDF67E8E3
:1003200070E090E0AADF85DF8091CB00823061F33E
:10033000BECF9EDF10C066B386B36695669591E02A
:100340006927617086958927817031DF63E970E0E4
:1003500090E093DF6EDF8091CB00833061F3A7CF15
:1003600087DF10C066B386B36695669591E069270E
:10037000617086958927817024DF61EA70E090E0E2
:100380007CDF57DF8091CB00843061F390CF70DF4A
:1003900010C066B386B36695669591E06927617073
:1003A00086958927817016DF6EEA70E090E065DF40
:1003B00040DF8091CB00853061F379CF59DF10C0E9
:1003C00066B386B36695669591E0692761708695F8
:1003D000892781700EDF6BEB70E090E04EDF29DF44
:0E03E0008091CB00863061F362CFF894FFCF9E
:1003EE00496E666F20626C6F636B0053656C65635C
:1003FE007420656C656D656E740053656C65637411
:10040E0065643A414E440053656C65637465643AA5
:10041E004F520053656C65637465643A4E414E44A9
:10042E000053656C65637465643A4E4F52005365B4
:10043E006C65637465643A584F520053656C65631E
:0A044E007465643A584E4F520000E6
:00000001FF
