S01800005369676964612E5472696767657227732E737265631F
S113000012C017C016C015C014C013C012C011C04E
S113001010C00FC00EC00DC00CC00BC00AC009C078
S113002008C007C006C011241FBECFEDCDBF30D01D
S1130030C1C0E6CF8FEF15C088BBEBE7F2E931977B
S1130040F1F700C0000018BAEBE7F2E93197F1F7D5
S113005000C0000088BBEBE7F2E93197F1F700C07C
S11300600000809902C0819BE7CF839902C0829BE4
S1130070E3CF819902C0839BDFCF809902C0829B2A
S1130080DBCF829902C0819BD7CF80E090E00895B6
S113009018BA8FEF87BB82BB11BAC1E0D2E013E07C
S11300A0809B1CC01EC0C6DF849B04C0859B02C00D
S11300B018BB14C0849904C0859B02C0D8BB0EC071
S11300C0849B04C0859902C0C8BB08C0849905C03C
S11300D0859903C086B388BB01C018BA809BE3CF5F
S11300E0DFCF819B30C032C0A5DF849B18C0859BC5
S11300F016C0C8BB83E294EF0197F1F700C000007B
S1130100D8BB83E294EF0197F1F700C00000C8BBAD
S113011083E294EF0197F1F700C0000014C08499C2
S113012004C0859B02C0D8BB0EC0849B04C08599C3
S113013002C0C8BB08C0849905C0859903C086B3B2
S113014088BB01C018BA819BCFCFAACF829B1DC0A8
S11301501FC070DF849B05C0859B03C086B388BB2A
S113016014C0849905C0859B03C086B388BB0DC0A9
S1130170849B04C0859902C0C8BB07C0849904C08D
S1130180859902C018BA01C018BA829BE2CF88CF01
S1130190839B0BC00DC04EDF849B02C0C8BB05C04F
S11301A0849902C0D8BB01C018BA839BF4CF78CF1E
S10B01B018BA76CFF894FFCFD2
S9030000FC
