S01F00005369676964612E54726967676572735F41746D656761382E7372656359
S113000012C024C023C022C021C020C01FC01EC0F3
S11300101DC01CC01BC01AC019C018C017C016C010
S113002015C014C013C011241FBECFE5D4E0DEBF39
S1130030CDBF10E0A0E6B0E0E8ECF2E002C005902D
S11300400D92AA36B107D9F7D6D03CC1D9CF282F03
S113005030E0662329F0811106C041E050E005C07C
S113006041E050E002C040E050E02423352391E019
S1130070232B09F090E0262F30E0882329F061112A
S113008006C041E050E005C041E050E002C040E05D
S113009050E02423352381E0232B09F080E08923D9
S11300A008950F931F93882311F0611128C08111C3
S11300B019C0611117C0F8014083FFE33DE083E0FC
S11300C0F15030408040E1F700C00000F801208387
S11300D0FFE32DE033E0F15020403040E1F700C071
S11300E000000DC0882329F0611103C0F80140838A
S11300F006C0811104C0662311F0F80120831F910A
S11301000F9108950F931F93882311F061110DC06F
S1130110811105C0611103C0F801408306C0882322
S113012021F0611102C0F80120831F910F910895FD
S1130130882319F0F90160830895F9014083089533
S113014018BA0895989908C020E630E0FC0131837C
S1130150208381E090E00895999908C023E630E077
S1130160FC013183208381E090E008959A9908C0CE
S113017026E630E0FC013183208381E090E008959D
S11301809B9908C028E630E0FC013183208381E09C
S113019090E0089580E090E0089516C08FEF88BB4A
S11301A0EBE7F2E93197F1F700C0000018BAEBE78A
S11301B0F2E93197F1F700C0000088BB8BE792E9C0
S11301C00197F1F700C00000989902C0999BE6CF0F
S11301D09B9902C09A9BE2CF999902C09B9BDECF68
S11301E0989902C09A9BDACF9A9902C0999BD6CF6C
S11301F081E090E00895CF93DF931F92CDB7DEB7EF
S113020018BA8FEF87BB82BB11BA85BB14BA4FC033
S1130210898190E020E08036920759F460B390B36E
S1130220669581E0682761708927817010DF88BB3B
S11302303EC020E08336920791F460B380B36695A4
S11302406695669591E069276170869586958927FC
S113025008E310E028E044E0817023DF28C020E0B8
S11302608636920791F460B380B3629566956770A1
S113027091E06927617082958F70892708E310E007
S113028020E140E281703EDF12C08856904071F454
S113029080B3829586958695837091E0892728E3BB
S11302A030E040E860E4817043DF01C049DFCE0103
S11302B0019648DF892B21F070DF892B09F0A8CF44
S10B02C03FDFF5CFF894FFCFF6
S10D02C85253004A4B004400540056
S9030000FC
