S014000054494E59323331335F4C43442E73726563D1
S113000014C02CC02BC02AC029C028C027C026C0B9
S113001025C024C023C022C021C020C01FC01EC0D0
S11300201DC01CC01BC01AC019C011241FBECFEDB7
S1130030CDBF10E0A0E6B0E0E6E8F3E002C0059032
S11300400D92A038B107D9F720E0A0E8B0E001C0D4
S11300501D92A538B207E1F73BD193C1D1CF929A53
S11300609AE19A95F1F700C092B3977892BB92B354
S1130070880F880F880F892B82BB92988AE18A9512
S1130080F1F700C00895CF93C82F611102C0919871
S113009001C0919A8C2F82958F70E1DF8C2FDFDF66
S11300A0CF91089561E0EFDF08956295660F660FC2
S11300B0607C860F60E08068E6DF08958FE295E754
S11300C00197F1F700C0000083E0C9DF8FE39FE1EF
S11300D00197F1F700C0000083E0C1DF87EC90E0F6
S11300E00197F1F700C0000083E0B9DF8FEC97E0DF
S11300F00197F1F700C0000082E0B1DF8FEC97E0D8
S11301000197F1F700C0000060E088E2BCDF8FECEB
S113011097E00197F1F700C0000060E08CE0B3DFE6
S11301208FEC97E00197F1F700C0000060E086E0F3
S1130130AADF8FEC97E00197F1F700C00000089563
S113014060E081E0A0DF87EC90E00197F1F700C068
S113015000000895CF93DF93EC018881882329F070
S11301602196A0DF89918111FCCFDF91CF91089571
S113017012BA8FEF81BB8FE088BB80EF87BB0895F5
S1130180DFDF60E070E080E090DF82E690E0E2DFB5
S113019061E070E080E089DF82E790E0DBDF61E02E
S11301A070E089E082DF88E790E0D4DF089590E092
S11301B0909361008093600061E070E087E075DFF8
S11301C08091600090916100099759F461E070E0BA
S11301D088E06BDF8DE790E0BDDF61E070E087E0F1
S11301E064DF4AE063E870E0809160009091610010
S11301F095D0B0DF2FE78DE89BE5215080409040FB
S1130200E1F700C00000B29B08C061E070E087E045
S11302104CDF10928000B4DF0BC08091600090919D
S1130220610001979093610080936000992324F604
S113023061E070E087E039DF10928000A1DF01D037
S11302400895B09918C080918200811114C08091E2
S1130250800091E0980F9093800091E09093820049
S1130260833610F0109280008FE295E70197F1F742
S113027000C000000895B19919C0809181008111D6
S113028015C0809180009FEF980F9093800091E0BB
S1130290909381008250833610F0109280008FE298
S11302A095E70197F1F700C000000895B2990BC0DB
S11302B08091800090E07BDF8FE295E70197F1F772
S11302C000C00000089510928200109281000895E9
S11302D04FDFF4DE35DF60E070E080E0E6DE82E6EA
S11302E090E038DF61E070E080E0DFDE82E790E0FC
S11302F031DF61E070E089E0D8DE88E790E02ADF52
S1130300A0DF61E070E087E0D0DE809180004AE009
S113031064E870E090E002D01DDFF2CFBB274A30E2
S113032031F4992322F4BDE2909581959F4F01C049
S1130330BB27FB015527AA27880F991FAA1FA417BB
S113034010F0A41B83955051B9F7A05DAA3308F0AF
S1130350A95DA193009779F7B111B1931192CB01E3
S113036000C0DC01FC01672F71917723E1F732971C
S113037004C07C916D9370836291AE17BF07C8F37C
S10903800895F894FFCF7C
S11303860A0054696D6572206279205469746B6F32
S1130396760054696D653A006D696E2E0020000082
S9030000FC
