:1000000012C019C018C017C016C015C014C013C044
:1000100012C011C010C00FC00EC00DC00CC00BC06C
:100020000AC009C008C011241FBECFE5D4E0DEBF5E
:10003000CDBF48D0D2C0E4CF882321F0611104C0E5
:1000400080E0089580E0089581E00895811104C062
:10005000662321F081E0089581E0089580E008950D
:10006000882321F0611104C081E0089581E00895A2
:1000700080E00895811103C0662319F0089580E09F
:10008000089581E00895811102C0611105C06111D8
:1000900005C0811105C0089581E0089580E00895AC
:1000A00081E00895811102C0611106C0882331F0FA
:1000B000611106C080E0089580E0089581E0089510
:1000C00081E0089515BA8FEF84BB88BB17BA82BB55
:1000D00011BA84990FC085990DC0869B0BC060B37F
:1000E00090B3669581E06827617089278170A4DFED
:1000F00085BBEFCF849914C0859B12C0869910C030
:1001000060B380B366956695669591E069276170E6
:10011000869586958927817099DF880F85BBD9CF11
:10012000849911C0859B0FC0869B0DC066B396B3A2
:10013000669581E0682761708927817091DF880F5B
:10014000880F85BBC6CF849B16C0859914C086993D
:1001500012C066B386B366956695669591E0692789
:100160006170869586958927817084DF880F880F56
:10017000880F85BBAECF849B15C0859913C0869B25
:1001800011C066B386B362956695677091E0692782
:10019000617082958F708927817075DF8295807F6D
:1001A00085BB97CF849B17C0859B15C0869913C0CC
:1001B00066B386B36095661F6627661F829586952F
:1001C0008695837091E0892781706CDF8295880F16
:0E01D000807E85BB7ECF15BA7CCFF894FFCF22
:00000001FF
