:1000000012C022C021C020C01FC01EC01DC01CC005
:100010001BC01AC019C018C017C016C015C014C024
:1000200013C012C011C011241FBECFEDCDBF10E010
:10003000A0E6B0E0E0EBF2E002C005900D92AA3637
:10004000B107D9F7C8D032C1DBCF0F931F938823F4
:1000500011F0611115C0811106C0611104C080E367
:10006000F80180830DC0882329F0611103C0F801D5
:10007000408306C0811104C0662311F0F80120837B
:100080001F910F9108950F931F93882311F0611111
:1000900028C0811119C0611117C0F8014083FFE920
:1000A00036E881E0F15030408040E1F700C00000C8
:1000B000F8012083FFE926E831E0F150204030408C
:1000C000E1F700C000000DC0882329F0611103C0D2
:1000D000F801408306C0811104C0662311F0F801C5
:1000E00020831F910F9108950F931F93882311F080
:1000F00061110DC0811105C0611103C0F801408379
:1001000006C0882321F0611102C0F80120831F91ED
:100110000F910895882319F0F90160830895F9017A
:1001200040830895B09908C020E630E0FC01318397
:10013000208381E090E00895B19908C023E630E083
:10014000FC013183208381E090E00895B29908C0DA
:1001500026E630E0FC013183208381E090E00895C1
:10016000B39908C028E630E0FC013183208381E0A8
:1001700090E0089580E090E0089516C08FEF88BB6E
:10018000EBE7F2E93197F1F700C0000018BAEBE7AE
:10019000F2E93197F1F700C0000088BB8BE792E9E4
:1001A0000197F1F700C00000B09902C0B19BE6CF03
:1001B000B39902C0B29BE2CFB19902C0B39BDECF2C
:1001C000B09902C0B29BDACFB29902C0B19BD6CF30
:1001D00081E090E00895CF93DF931F92CDB7DD27A4
:1001E0008FEF82BB11BA8FE088BB80EF87BB53C013
:1001F000898190E020E08036920771F460B390B37B
:10020000669581E068276170892708E310E020E2A5
:1002100040E181701ADF3FC020E08336920791F4FD
:1002200060B380B366956695669591E069276170C5
:1002300086958695892708E310E020E640E48170E2
:1002400022DF29C020E08636920791F460B380B3A4
:1002500062956695677091E06927617082958F70ED
:10026000892708E310E020EA40E881703DDF13C0F1
:100270008856904079F480B3982F929596959695EC
:10028000937081E0892728E330E040EE60EC8170D4
:1002900041DF01C018BACE01019644DF892B21F05D
:1002A0006CDF892B09F0A4CF18BAF5CFF894FFCFF3
:0A02B0005253004A4B004400540072
:00000001FF
