:100000001AC034C033C032C031C030C02FC02EC07F
:100010002DC02CC02BC066C029C028C027C026C058
:1000200025C024C023C082C085C088C08BC08EC0BC
:1000300091C094C097C011241FBECFE5D4E0DEBFAD
:10004000CDBF10E0A0E6B0E0E6EDF1E002C0059023
:100050000D92A439B107D9F720E0A4E9B0E001C0BE
:100060001D92A739B207E1F791D0B3C0C9CF90E094
:1000700003C00F920F909F5F9817D8F308950F93C6
:100080001F93CF93DF938C01C0E0D0E009C08AEFCB
:10009000EEDF8AEFECDF8AEFEADF8AEFE8DF219616
:1000A000C017D107A0F3DF91CF911F910F91089551
:1000B0005D9BFECF8CB90895CF93DF93EC0102C016
:1000C000F7DF219688818111FBCFDF91CF910895D1
:1000D00083E389B910BC8AB188698AB980B586681A
:1000E00080BD08951F920F920FB60F9211242F9387
:1000F0003F934F935F936F937F938F939F93AF93B0
:10010000BF93EF93FF938CB18093960091E090930F
:100110009400CEDFE09196008E2F90E0FC01F197E5
:10012000E830F10510F5ED5EFF4F099488B381606A
:1001300088BB1BC088B3826088BB17C088B384604B
:1001400088BB13C088B3886088BB0FC088B3806148
:1001500088BB0BC088B3806288BB07C088B380644B
:1001600088BB03C088B3806888BBFF91EF91BF91C3
:10017000AF919F918F917F916F915F914F913F913F
:100180002F910F900FBE0F901F9018958FEF87BB88
:1001900018BA14BA85BB8EEF81BB12BA99DF789476
:1001A00080E690E089DF88E790E086DF84EC99E0E4
:1001B00066DF809194008823E1F31092940080918F
:1001C00095008F5F80939500813198F31092950090
:0601D000F0CFF894FFCF10
:1001D600496E697469616C697A6174696F6E2073BE
:1001E600797374656D0D0A00554152542056302EB0
:1001F600312E3120497A766172696E2044696D61CB
:040206000D0A0000DD
:00000001FF
