:1000000012C021C020C01FC01EC01DC01CC01BC00C
:100010001AC019C018C017C016C015C014C013C02C
:1000200012C011C010C011241FBECFE5D4E0DEBF46
:10003000CDBF20E0A0E6B0E001C01D92A236B2071D
:10004000E1F768D0D9C0DCCF82B382BB82B382BB78
:1000500082B382BB08958130910519F0029721F097
:100060000895F2DF979A0895EFDF969A089588230E
:1000700011F0862F02C080E090E081700895811118
:1000800002C0862F02C081E090E08170089588232D
:1000900021F081E06827862F02C081E090E0817026
:1000A0000895811104C081E06827862F02C080E096
:1000B00090E081700895811102C0862F02C081E016
:1000C000862781700895811103C081E0862701C0D1
:1000D000862F8170089584991AC0809160008111E3
:1000E00016C0809161008F5F8093610091E09093D2
:1000F0006000873010F0109261002FE986E891E0EF
:10010000215080409040E1F700C000000895109217
:100110006000089515BA8FEF84BB88BB17BA8FE1D2
:1001200082BB80EE81BBC1E0D6DF8091610083306D
:10013000C1F1A8F4813041F1823009F05AC060B3B6
:1001400080B363FB662760F96C2782FB882780F900
:100150008C2795DF880F85BB82E090E020C085303A
:10016000D1F150F1863009F044C066B386B3609592
:10017000661F6627661F86FB882780F98C27A3DF0A
:100180008295880F807E33C060B390B366956827F0
:100190006170892781706BDF85BB81E090E05BDF58
:1001A00029C066B386B3669561706C2781708C2711
:1001B0006EDF880F880F1BC066B386B363FB6627AC
:1001C00060F96C2782FB882780F98C276ADF880F0B
:1001D000880F880F0CC066B386B365FB662760F98D
:1001E0006C27829581708C2766DF8295807F85BB26
:0C01F00001C015BA70DF98CFF894FFCF63
:00000001FF
