:1000000012C01FC01EC01DC01CC01BC01AC019C01A
:1000100018C017C016C015C014C013C012C011C03C
:1000200010C00FC00EC011241FBECFEDCDBF20E009
:10003000A0E6B0E001C01D92A336B207E1F72AD0D6
:10004000F3C0DECF82991AC080916000811116C082
:10005000809161008F5F8093610091E090936000D8
:10006000853010F0109261002FE986E891E0215070
:1000700080409040E1F700C00000089510926000B9
:100080000895E7EAF1E63197F1F700C0000088BB78
:10009000D9DF08958FEF82BB11BA18BA87BBD2DFC0
:1000A000809161008230D9F118F4813041F0BAC0FA
:1000B000833009F489C0843009F4A5C0B3C084E05A
:1000C000E0DF84E08093620025C0809905C08199BB
:1000D00003C087E0D6DF1EC0809B06C0819B04C0A2
:1000E00080916200CEDF16C0809B08C0819906C057
:1000F00085E0C7DF85E0809362000CC0809908C06E
:10010000819B06C086E0BDDF86E08093620002C06E
:1001100084E0B7DF809161008130B9F2C0CF88E020
:10012000B0DF88E08093620049C0809929C081993E
:1001300027C087EA91E60197F1F700C0000089E047
:1001400088BBE7EAF1E63197F1F700C0000088E0EC
:1001500088BBE7EAF1E63197F1F700C000009AE0CA
:1001600098BBE7EAF1E63197F1F700C0000088BBE1
:1001700087EA91E60197F1F700C0000063DF1EC037
:10018000809B06C0819B04C0809162007ADF16C00C
:10019000809B08C0819906C089E073DF89E0809365
:1001A00062000CC0809908C0819B06C08AE069DFAC
:1001B0008AE08093620002C088E063DF8091610082
:1001C000823009F4B2CF6BCF80E15BDF17C080993A
:1001D00008C0819B06C082E154DF82E18093620007
:1001E0000DC0809B08C0819B06C081E14ADF81E190
:1001F0008093620003C08091620043DF80916100C0
:10020000833029F34CCF80E23CDF07C0809B03C0E2
:1002100081E237DF02C082E234DF80916100843006
:0C022000A9F33DCF18BA3BCFF894FFCFF4
:00000001FF
